:100000000C940F010C9440010C9440010C9440019D
:100010000C9440010C9440010C9440010C9440015C
:100020000C9440010C9440010C9440010C9440014C
:100030000C9440010C9440010C9440010C9440013C
:100040000C9440010C94F3050C9440010C94400175
:100050000C9440010C9440010C9440010C948609CE
:100060000C9440010C94960D0C946A0E0C94400173
:100070000C9440010C9440010C9440010C944001FC
:100080000C9421060C9440010C9440010C94400106
:100090000C94C30D0C94A90E0C9440010C944001D7
:1000A0000C9440010C9440010C944F060C944001B8
:1000B0000C9440010C9440010C9440010C947D067A
:1000C0000C9440010C9440010C9440010C94F00DF0
:1000D0000C94E80E0C9440010C941D0E0C94270F08
:1000E0000C9440010000090A02080B0C0D070603DE
:1000F00004010000000000000000000000000000FB
:1001000000000000000000000000000000000000EF
:1001100011100F00000000000000000000000000AF
:100120000000000000000000000001021020200874
:100130000810204010204080020102010804020142
:1001400001020408102040808040201008040201B1
:10015000800402018040201008040201080402010A
:100160000102040810204080010204081020408091
:1001700005050505070508080808020202020A0A23
:100180000808040404040101010101010101030341
:10019000030303030303040707070C0C0C0C0C0CEC
:1001A0000C0C0202020206060606060606060B0BE9
:1001B0000B0B0B0B0B0B00002200250028002B0063
:1001C0002E003100340002010000050108010B017E
:1001D00000002100240027002A002D0030003300F9
:1001E00001010000040107010A010C9428050C9488
:1001F00004110C9402050C9483090C94E20C0C94E9
:10020000470D0C94F50C0C94E60F0C94110D0C9406
:10021000350D0C94490E02058309E60F28051124BB
:100220001FBECFEFD1E2DEBFCDBF00E00CBF13E0B9
:10023000A0E0B2E0E4EEF9E200E00BBF02C00790FC
:100240000D92AC3CB107D9F717E0ACECB3E001C0BC
:100250001D92A632B107E1F712E0CCE1D2E000E056
:1002600006C022970109FE010BBF0E94A512C631EC
:10027000D10780E00807A9F70E941F0B0C94E01437
:100280000C9400000C94180C40E052EC61E070E01B
:1002900083EE94E00E94660F40E052EC61E070E073
:1002A00084EC94E00E94660F20910E0230910F02C0
:1002B000409110025091110269E070E083EE93E0EA
:1002C0000E94C70620910E0230910F024091100249
:1002D000509111026AE070E080EE93E00E94C70640
:1002E0006FEF8EED93E00E945E096FEF8CED93E06F
:1002F0000E945E096FEF8AED93E00E945E096091B3
:100300000C0270910D0283EE93E00E94AD076091A4
:100310000A0270910B0280EE93E00E94AD0762E149
:1003200072E083EE94E00E94A31162E172E084EC3B
:1003300094E00C94A311CF93DF93EC01BC0183EE06
:1003400094E00E948F11BE0184EC94E0DF91CF9184
:100350000C948F110C94730B0F931F93CF93DF9317
:10036000CDB7DEB765970FB6F894DEBF0FBECDBF31
:100370008C010E94D0096093CC037093CD038093CD
:10038000CE039093CF0360E272E0CE0108960E9404
:10039000E40BB801CE0108960E947C0C6AE272E080
:1003A0000E94920CBC01CE010F960E94180CCE0147
:1003B00008960E94AA016EE272E0C8010E94AF0C8A
:1003C000882301F1BE01615F7F4FCE0108960E9434
:1003D000420162E372E0CE0108960E94920CBC01D9
:1003E000CE0101960E94180CCE0101960E949B013D
:1003F000CE0101960E94730BCE0108960E94AA01BD
:1004000061E026C068E472E0C8010E94AF0C882356
:1004100021F1BE01615F7F4FCE0108960E9442012B
:100420006CE472E0CE0108960E94920CBC01CE01F1
:1004300001960E94180CCE0101960E949B01CE01EC
:1004400001960E94730BCE0108960E94AA0164E0F7
:100450008EED93E00E94FC084EC260E672E0C80197
:100460000E94AF0C882301F1BE01615F7F4FCE0176
:1004700008960E94420164E672E0CE0108960E944E
:10048000920CBC01CE0101960E94180CCE0101967F
:100490000E949B01CE0101960E94730BCE0108962B
:1004A0000E94AA0162E0D4CF6BE772E0C8010E940B
:1004B000AF0C882351F0BE01615F7F4FCE010896DB
:1004C0000E9442016FE772E0ADCF64E972E0C801BB
:1004D0000E94AF0C882301F1BE01615F7F4FCE0106
:1004E00008960E94420168E972E0CE0108960E94D7
:1004F000920CBC01CE0101960E94180CCE0101960F
:100500000E949B01CE0101960E94730BCE010896BA
:100510000E94AA0161E026C06BEA72E0C8010E9455
:10052000AF0C882311F1BE01615F7F4FCE010896A9
:100530000E9442016FEA72E0CE0108960E94920C7E
:10054000BC01CE0101960E94180CCE0101960E94BA
:100550009B01CE0101960E94730BCE0108960E946A
:10056000AA0164E08AED93E075CF60EC72E0C80107
:100570000E94AF0C882301F1BE01615F7F4FCE0165
:1005800008960E94420164EC72E0CE0108960E9437
:10059000920CBC01CE0101960E94180CCE0101966E
:1005A0000E949B01CE0101960E94730BCE0108961A
:1005B0000E94AA0162E0D6CF68ED72E0C8010E94F5
:1005C000AF0C882351F0BE01615F7F4FCE010896CA
:1005D0000E9442016CED72E0AFCF6EEE72E0C80196
:1005E0000E94AF0C882349F1BE01615F7F4FCE01AD
:1005F00008960E94420162EF72E0CE0108960E94C6
:10060000920CBC01CE0101960E94180CCE010196FD
:100610000E949B01CE0101960E94730BCE010896A9
:100620000E94AA0160910A0270910B026036710566
:100630000CF061C16B5F7F4F40C064E073E0C801A4
:100640000E94AF0C882351F0BE01615F7F4FCE0145
:1006500008960E94420168E073E0D0C068E173E050
:10066000C8010E94AF0C882379F1BE01615F7F4F02
:10067000CE0108960E9442016CE173E0CE0108961B
:100680000E94920CBC01CE0101960E94180CCE0172
:1006900001960E949B01CE0101960E94730BCE0130
:1006A00008960E94AA0160910A0270910B026530BF
:1006B00071050CF420C16550710970930B026093B1
:1006C0000A0280EE93E087C06FE273E0C8010E94E7
:1006D000AF0C882351F0BE01615F7F4FCE010896B9
:1006E0000E94420163E373E089C064E473E0C801DF
:1006F0000E94AF0C882349F1BE01615F7F4FCE019C
:1007000008960E94420168E473E0CE0108960E94B8
:10071000920CBC01CE0101960E94180CCE010196EC
:100720000E949B01CE0101960E94730BCE01089698
:100730000E94AA0160910C0270910D026530710552
:100740000CF4D9C06550710940C068E573E0C80178
:100750000E94AF0C882351F0BE01615F7F4FCE0134
:1007600008960E9442016CE573E048C06AE673E0B7
:10077000C8010E94AF0C882389F1BE01615F7F4FE1
:10078000CE0108960E9442016EE673E0CE01089603
:100790000E94920CBC01CE0101960E94180CCE0161
:1007A00001960E949B01CE0101960E94730BCE011F
:1007B00008960E94AA0160910C0270910D026B3A9A
:1007C00071050CF098C06B5F7F4F70930D026093C2
:1007D0000C0283EE93E00E94AD078DC060E873E0E9
:1007E000C8010E94AF0C8823F9F0BE01615F7F4F02
:1007F000CE0108960E94420164E873E0CE0108969B
:100800000E94920CBC01CE0101960E94180CCE01F0
:1008100001960E949B01CE0101960E94730BCE01AE
:1008200008960E94AA0167C064E973E0C8010E94AB
:10083000AF0C882301F1BE01615F7F4FCE010896A6
:100840000E94420167E973E0CE0108960E94920C73
:10085000BC01CE0101960E94180CCE0101960E94A7
:100860009B01CE0101960E94730BCE0108960E9457
:10087000AA0161E026C064EA73E0C8010E94AF0CDF
:10088000882311F1BE01615F7F4FCE0108960E945F
:10089000420167EA73E0CE0108960E94920CBC0107
:1008A000CE0101960E94180CCE0101960E949B0178
:1008B000CE0101960E94730BCE0108960E94AA01F8
:1008C00064E08CED93E0C6CD62EB73E0C8010E945A
:1008D000AF0C882381F067EB73E083EE94E00E9415
:1008E000A3110E94D009AB01BC012AE030E083EEE5
:1008F00094E00E942012CE010F960E94730B659621
:100900000FB6F894DEBF0FBECDBFDF91CF911F9120
:100910000F9108950F931F93CF93DF93CDB7DEB759
:1009200027970FB6F894DEBF0FBECDBF8091D003DE
:10093000882311F161ED73E083EE94E00E948F1142
:1009400061ED73E084EC94E00E948F1161ED73E03F
:10095000CE0101960E94180CCE0101960E94AC01B6
:10096000CE0101960E94730B6DE272E081ED93E07F
:100970000E94220C1092D0030E94D0090091CC0357
:100980001091CD032091CE033091CF03601B710BEA
:10099000820B930B613777418105910578F064E014
:1009A0008EED93E00E94FC0864E08CED93E00E94E1
:1009B000FC0864E08AED93E00E94FC0827960FB6DD
:1009C000F894DEBF0FBECDBFDF91CF911F910F9185
:1009D0000895CF93C1E083EE94E00E94E20C892B4E
:1009E00079F083EE94E00E94110D8A3019F4C093DF
:1009F000D003F1CF682F81ED93E00E94680CEBCF1C
:100A0000CF91089583EE93E00E94AB0680EE93E0D1
:100A10000E94AB0641E061E08EED93E00E949A08EF
:100A200041E062E08CED93E00E949A0841E063E0CF
:100A30008AED93E00E949A0841E064E088ED93E03B
:100A40000E949A086DE272E081ED93E00C94E40B51
:100A500081ED93E00C94730BEF92FF920F931F9331
:100A6000CF93DF938B017A01EC01DC01A951BC4FDC
:100A70008C9187FF05C0DB0111961C921E9222C04B
:100A80002CE02C9FC0012D9F900D11242C91AC01C6
:100A9000420F511D27FD5A952091E60330E0421781
:100AA000530784F42C91FC01E20FF11D27FDFA9508
:100AB0009F01EE0FFF1FE20FF31FE551FC4F208156
:100AC00026FD45C0FE01E951FC4F80818F5F808388
:100AD0002CE02C9FC0012D9F900D11242081AC0192
:100AE000420F511D27FD5A952091E60330E0421731
:100AF00053070CF03EC020812C300CF442C039C0AA
:100B00002081820F911D27FD9A95FC01EE0FFF1F9A
:100B1000E80FF91FE551FC4F808161E08F73DF9191
:100B2000CF911F910F91FF90EF900C94E80A80E411
:100B30009CE904C0F801808191810496D701119647
:100B40009C938E93C951DC4F8FEF888345C02C91C5
:100B5000820F911D27FD9A95FC01EE0FFF1FE80FF4
:100B6000F91FE551FC4F808160E08F730E94E80A15
:100B7000A9CFF80180819181049680349C49B8F214
:100B8000D9CFD8012D913C914081BC01640F711DDA
:100B900047FD7A95AB01DB01AA0FBB1FA40FB51F60
:100BA000A551BC4F11964D915C911297240F351FA2
:100BB000D70111963C932E932081AC01420F511D19
:100BC00027FD5A95DA01AA0FBB1FA40FB51FA55127
:100BD000BC4F2C9126FD94CFDF91CF911F910F91A7
:100BE000FF90EF9008951F920F920FB60F9211246D
:100BF0000BB60F922F933F934F935F936F937F9317
:100C00008F939F93AF93BF93EF93FF9348E850E088
:100C100064E870E081E090E00E942C05FF91EF9184
:100C2000BF91AF919F918F917F916F915F914F9104
:100C30003F912F910F900BBE0F900FBE0F901F9002
:100C400018951F920F920FB60F9211240BB60F92A8
:100C50002F933F934F935F936F937F938F939F93C4
:100C6000AF93BF93EF93FF9348E950E064E970E0DE
:100C700082E090E00E942C05FF91EF91BF91AF912F
:100C80009F918F917F916F915F914F913F912F91A4
:100C90000F900BBE0F900FBE0F901F9018951F92D4
:100CA0000F920FB60F9211240BB60F922F933F9312
:100CB0004F935F936F937F938F939F93AF93BF9364
:100CC000EF93FF9348EA50E064EA70E083E090E03D
:100CD0000E942C05FF91EF91BF91AF919F918F9151
:100CE0007F916F915F914F913F912F910F900BBE2C
:100CF0000F900FBE0F901F9018951F920F920FB676
:100D00000F9211240BB60F922F933F934F935F9343
:100D10006F937F938F939F93AF93BF93EF93FF93C3
:100D200048E251E064E271E080E090E00E942C052E
:100D3000FF91EF91BF91AF919F918F917F916F91B3
:100D40005F914F913F912F910F900BBE0F900FBE6F
:100D50000F901F9018952091E6032033A0F4FC011A
:100D60002083822F8F5F8093E603822F90E0FC0127
:100D7000EE0FFF1FE80FF91FE551FC4F88EB9BE0DA
:100D80009283818308952FEFFC0120830895DF92E1
:100D9000EF92FF920F931F93CF93DF93EC01D62E28
:100DA0007A0189018881803308F094C061E08D2D3B
:100DB0000E94B00A8881A82FB0E0FD01EE0FFF1F4E
:100DC000EA0FFB1FE551FC4F2D2D2F739081907C76
:100DD000922B908360E272E06E197F0977FF02C068
:100DE0006D5F7F4F7595679575956795698340E64B
:100DF00059E0401B510B57FF02C04D5F5F4F5595A7
:100E00004795559547954A836CE00E9450129CE0A7
:100E1000899FB001112420E030E0A901460F571F3F
:100E2000FA01EE0FFF1FE40FF51FE551FC4F908113
:100E300096FD44C02F5F3F4F2C30310571F74CC0F9
:100E40001092800082E080938100109285001092C1
:100E50008400B19A80916F00826080936F002EC0F1
:100E60008230910569F41092900082E080939100A5
:100E7000109295001092940088BB809371001EC060
:100E80008330910569F41092A00082E08093A10064
:100E90001092A5001092A40089BB809372000EC02E
:100EA000892B61F41092200182E08093210110923D
:100EB0002501109224018ABB80937300888190E001
:100EC000FC01EE0FFF1FE80FF91FE551FC4F808179
:100ED00080648083888106C090E08130910509F0AC
:100EE000BFCFAECFDF91CF911F910F91FF90EF90C9
:100EF000DF900895FC018081803370F5918128E8AE
:100F000030E0291B310997FD3395220F331F220F43
:100F1000331F621773077CF0928128E532E0291BAA
:100F2000310997FD3395220F331F220F331F6217AC
:100F300073070CF49B014FB7F89490E0FC01EE0F9F
:100F4000FF1FE80FF91FE551FC4F22503109220F16
:100F5000331F328321834FBF0895AF92BF92CF9248
:100F6000DF92EF92FF920F931F93CF93DF93EC01E9
:100F7000603282E078070CF041C077FD04C0653B29
:100F8000710524F405C060E070E002C064EB70E01D
:100F9000298188E890E0821B910927FD9395880FAD
:100FA000991F880F991F5C01CC24B7FCC094DC2CDE
:100FB000882777FD8095982F2A8148E552E0421BCB
:100FC000510927FD5395440F551F440F551F8A01A2
:100FD000222717FD2095322F3F932F931F930F93B6
:100FE00014EBE12EF12C00E010E020E030E0A9014C
:100FF0000E942C0B0F900F900F900F90CE01DF915D
:10100000CF911F910F91FF90EF90DF90CF90BF9005
:10101000AF900C947A07CF93DF9360E08CE00E944E
:10102000E80A60E088E00E94E80AC7E0D0E060E0FB
:1010300084E00E94E80A80917B0490E00C2E02C0BC
:10104000959587950A94E2F780FF02C061E001C0A0
:1010500060E088E00E94E80A61E084E00E94E80A1B
:10106000219728F761E08CE0DF91CF910C94E80A9A
:10107000CF93DF93EC0161E08CE00E94B00A61E065
:1010800087E00E94B00A61E088E00E94B00A61E057
:1010900084E00E94B00A10927B04CE010E940B08EB
:1010A00060E087E0DF91CF910C94E80AE0E8F0E09F
:1010B00090819168908387708860809381001092FE
:1010C00089001092880061E08BE00C94B00AE0E99E
:1010D000F0E09081996090838770886080939100A0
:1010E00010929D0010929C0061E083E00C94B00A85
:1010F000E0EAF0E090819168908387708860809347
:10110000A1001092A9001092A80061E086E00C9462
:10111000B00AE0E9F0E09081916890838770886080
:1011200080939100109299001092980061E085E000
:101130000C94B00A1F93CF93DF931F92CDB7DEB705
:10114000FC01142F608341838CE794E069830E9443
:10115000380869816230D9F020F4613009F047C065
:1011600006C0633021F1643009F041C030C0809185
:101170007B04837F80937B048CE794E00E940B08C0
:10118000812F0F90DF91CF911F910C945608809181
:101190007B048D7E80937B048CE794E00E940B0897
:1011A000812F0F90DF91CF911F910C946708809150
:1011B0007B048F7580937B048CE794E00E940B087E
:1011C000812F0F90DF91CF911F910C94780880911F
:1011D0007B048E7B80937B048CE794E00E940B0859
:1011E000812F0F90DF91CF911F910C9489080F9060
:1011F000DF91CF911F910895FC0180818230A1F091
:1012000020F4813009F059C006C0833039F08430B1
:1012100009F053C006C073E0E2E008C077E0E5E003
:1012200005C076E0E0E002C074E0E1E06230D1F0B9
:10123000643069F1613009F040C041E050E09A014A
:10124000072E01C0220F0A94EAF720950E2E01C046
:10125000440F0A94EAF780917B04842B282320937F
:101260007B0427C021E030E0A9010E2E01C0440F0D
:101270000A94EAF7409580917B044823072E01C029
:10128000220F0A94EAF7422B40937B0412C081E0BC
:1012900090E0AC0101C0440FEA95EAF701C0880F65
:1012A0007A95EAF7842B809590917B04982390930C
:1012B0007B048CE794E00C940B080895FC0180817A
:1012C000823079F018F48130E9F405C0833079F088
:1012D0008430C1F412C070E070938900609388007C
:1012E000089570E070939D0060939C00089570E0F5
:1012F0007093A9006093A800089570E0709399001E
:1013000060939800089510927C0408951F920F92A4
:101310000FB60F9211242F933F938F939F93AF9308
:10132000BF9380917D0490917E04A0917F04B09141
:10133000800430918504232F2D5F2D3720F40196F2
:10134000A11DB11D05C0232F2A570296A11DB11D55
:101350002093850480937D0490937E04A0937F0462
:10136000B09380048091810490918204A0918304C1
:10137000B09184040196A11DB11D809381049093C6
:101380008204A0938304B0938404BF91AF919F9192
:101390008F913F912F910F900FBE0F901F90189536
:1013A0000F931F938FB7F89400917D0410917E04E2
:1013B00020917F04309180048FBFB801C9011F9133
:1013C0000F910895789484B5826084BD84B581605E
:1013D00084BD85B5826085BD85B5816085BDEEE63D
:1013E000F0E0808181608083E1E8F0E0108280811C
:1013F00082608083808181608083E0E8F0E080818A
:1014000081608083E1EBF0E0808184608083E0EBA9
:10141000F0E0808181608083E1E9F0E0808182609A
:101420008083808181608083E0E9F0E08081816059
:101430008083E1EAF0E08081826080838081816046
:101440008083E0EAF0E0808181608083E1E2F1E086
:10145000808182608083808181608083E0E2F1E02E
:10146000808181608083EAE7F0E08081846080830E
:1014700080818260808380818160808380818068B8
:1014800080831092C1000895893009F443C088F424
:10149000843029F138F4823059F1E8F4813009F0D0
:1014A0005EC023C0873061F188F5863009F057C0EF
:1014B00023C08D3009F440C020F48B30A9F1C0F571
:1014C0002DC0803109F442C0813109F443C08F300E
:1014D00009F045C037C0809180008F7703C08091AC
:1014E00080008F7D80938000089584B58F7702C03F
:1014F00084B58F7D84BD08958091B0008F7703C03F
:101500008091B0008F7D8093B0000895809190000D
:101510008F7707C0809190008F7D03C080919000ED
:10152000877F8093900008958091A0008F7707C0F7
:101530008091A0008F7D03C08091A000877F809361
:10154000A0000895809120018F7707C0809120012D
:101550008F7D03C080912001877F809320010895B3
:10156000CF93DF9390E0FC01E65DFE4F4491FC01D8
:10157000E059FE4F8491882341F190E0880F991F34
:10158000FC01E053FE4F25913491D9018A549E4FBE
:10159000FC0185919491C82FD92F9FB7F8948C9115
:1015A000611106C0409584238C938881842308C0F0
:1015B000623041F4242F209582238C938881842BE0
:1015C000888302C0842B8C939FBFDF91CF910895B5
:1015D0000F931F93CF93DF931F92CDB7DEB7282FC2
:1015E00030E0F901EC51FF4F8491F901E65DFE4FC7
:1015F0001491F901E059FE4F04910023D1F08823A2
:1016000021F069830E94440A6981E02FF0E0EE0F27
:10161000FF1FEA54FE4F85919491DC019FB7F89427
:101620008C91611103C01095812301C0812B8C9393
:101630009FBF0F90DF91CF911F910F9108950E944E
:10164000E2090E944401C9E4DEE00E948A04209776
:10165000E1F30E94490EF9CF4F925F926F927F9211
:10166000AF92BF92CF92DF92EF92FF920F931F93B0
:10167000CF93DF93CDB7DEB729013A01621B730B1D
:10168000840B950B2A893B894C895D892A193B0972
:101690004C095D092A8B3B8B4C8B5D8B9B01AC010C
:1016A0006A897B898C899D890E944012E418F5081B
:1016B00006091709A80197010E947E122A0D3B1DF9
:1016C0004C1D5D1DB901CA01DF91CF911F910F9192
:1016D000FF90EF90DF90CF90BF90AF907F906F9092
:1016E0005F904F900895FC01808191810C94441388
:1016F000CF93DF93EC0188819981009711F00E94CC
:101700004413198218821D821C821B821A82DF9167
:10171000CF9108950F931F93CF93DF93EC018B012B
:101720006F5F7F4F888199810E94E313009731F0AA
:10173000998388831B830A8381E001C080E0DF9165
:10174000CF911F910F910895CF93DF93EC01888182
:101750009981892B31F08A819B818617970708F040
:101760000CC0CE010E948A0B882349F08C819D8198
:10177000892B19F4E881F981108281E001C080E0B1
:10178000DF91CF910895EF92FF920F931F93CF9324
:10179000DF93EC017B018A01BA010E94A40B811145
:1017A00004C0CE010E94780B07C01D830C83B701D3
:1017B000888199810E94D914CE01DF91CF911F9128
:1017C0000F91FF90EF900895DC0111961C921E92EC
:1017D00013961C921E92129715961C921E921497A5
:1017E00016961C926115710559F0DB010D900020D1
:1017F000E9F7AD0141505109461B570B0C94C30B3F
:101800000895CF93DF93EC01FB018617970761F0F2
:10181000608171816115710529F0448155810E94B3
:10182000C30B02C00E94780BCE01DF91CF910895C7
:10183000FC01118210821382128215821482168298
:101840000C94010CCF93DF93D82FC92F611571052C
:1018500061F0DB010D900020E9F7AD014150510925
:10186000461B570B0E94C30B02C00E94780B8D2FA2
:101870009C2FDF91CF910895EF92FF920F931F93CA
:10188000CF93DF93EC017B010C811D816115710504
:1018900011F480E016C04115510591F0040F151F99
:1018A000B8010E94A40B8823A1F3288139818C817F
:1018B0009D81B701820F931F0E94D9141D830C8351
:1018C00081E0DF91CF911F910F91FF90EF900895EC
:1018D000CF93DF931F921F92CDB7DEB769831A8231
:1018E00041E050E0BE016F5F7F4F0E943C0C0F90C3
:1018F0000F90DF91CF910895CF93DF93D82FC92F09
:10190000FB0144815581608171810E943C0C8111F1
:1019100004C08D2F9C2F0E94780B8D2F9C2FDF9160
:10192000CF910895CF93DF93D82FC92F61157105FB
:1019300069F0DB010D900020E9F7AD01415051093C
:10194000461B570B0E943C0C811104C08D2F9C2F0D
:101950000E94780B8D2F9C2FDF91CF910895DC0191
:1019600014962D913C911597232B39F481E0611544
:10197000710511F0FB0108C00895DC01ED91FC91A7
:101980006115710529F481E09081992349F007C020
:10199000CF010E94D0149C0181E0232B09F080E04C
:1019A0000895FC01248135816217730748F4808112
:1019B0009181009729F0FC01E60FF71F80810895BF
:1019C00080E00895FC0184859585FC01E05CFF4F73
:1019D00020813181FC01EE5BFF4F80819181281BCA
:1019E000390B2F733327C9010895FC018485958530
:1019F000FC01E05CFF4F40815181FC01EE5BFF4F39
:101A0000208131814217530741F00190F081E02D90
:101A1000E80FF91F208130E002C02FEF3FEFC9012E
:101A20000895FC0184859585FC01E05CFF4F4081B1
:101A30005181FC01EE5BFF4F20813181421753073A
:101A400081F0A081B181A80FB91F8C9120813181D3
:101A50002F5F3F4F2F73332731832083282F30E0B0
:101A600002C02FEF3FEFC9010895FC0186859785DD
:101A7000FC01E05CFF4FDC01AE5BBF4F4081518158
:101A80002D913C91119742175307C1F70895CF93B9
:101A9000DF93FC0186859785DC01A05CBF4F2D910B
:101AA0003C9111972F5F3F4F2F733327EC01CE5B93
:101AB000DF4F4881598124173507D9F30D90BC9128
:101AC000A02DA80FB91F6C93A685B785A05CBF4F4A
:101AD00011963C932E93A689B7892C9181E090E0D2
:101AE000058C02C0880F991F0A94E2F7282B2C93CB
:101AF00081E090E0DF91CF910895FB01E05CFF4F22
:101B0000208131812F5F3F4F2F733327DB01AE5B85
:101B1000BF4F4D915C912417350739F0A081B181F9
:101B2000A60FB71F8C933183208308951F920F92C5
:101B30000FB60F9211240BB60F922F933F934F9332
:101B40005F936F937F938F939F93AF93BF93EF9325
:101B5000FF938091C6006EED76E00E947D0DFF91AF
:101B6000EF91BF91AF919F918F917F916F915F9115
:101B70004F913F912F910F900BBE0F900FBE0F9082
:101B80001F90189508951F920F920FB60F9211246F
:101B90000BB60F922F933F934F935F936F937F9367
:101BA0008F939F93AF93BF93EF93FF938091CE005A
:101BB00066E576E00E947D0DFF91EF91BF91AF91B8
:101BC0009F918F917F916F915F914F913F912F9155
:101BD0000F900BBE0F900FBE0F901F901895089599
:101BE0001F920F920FB60F9211240BB60F922F93E4
:101BF0003F934F935F936F937F938F939F93AF9395
:101C0000BF93EF93FF938091D6006EEC75E00E9436
:101C10007D0DFF91EF91BF91AF919F918F917F913A
:101C20006F915F914F913F912F910F900BBE0F904D
:101C30000FBE0F901F90189508951F920F920FB628
:101C40000F9211240BB60F922F933F934F935F93F4
:101C50006F937F938F939F93AF93BF93EF93FF9374
:101C60008091360166E475E00E947D0DFF91EF9151
:101C7000BF91AF919F918F917F916F915F914F91A4
:101C80003F912F910F900BBE0F900FBE0F901F90A2
:101C9000189583EE94E00E94E20C892B11F00E94CB
:101CA000E90484EC94E00E94E20C892B11F00E947C
:101CB000C20D85EA94E00E94E20C892B11F00E948B
:101CC000EF0D86E894E00E94E20C892B11F00C9451
:101CD0001C0E08951F920F920FB60F9211240BB68F
:101CE0000F922F933F938F939F93EF93FF932091A6
:101CF000DA063091DB068091DC069091DD0628172C
:101D0000390731F48091C1008F7D8093C10014C0E8
:101D1000E091DC06F091DD06E656F94F20818091D6
:101D2000DC069091DD0601968F7399279093DD066E
:101D30008093DC062093C600FF91EF919F918F91D5
:101D40003F912F910F900BBE0F900FBE0F901F90E1
:101D500018951F920F920FB60F9211240BB60F9287
:101D60002F933F938F939F93EF93FF93209152066E
:101D700030915306809154069091550628173907E3
:101D800031F48091C9008F7D8093C90014C0E09127
:101D90005406F0915506EE5EF94F2081809154066D
:101DA0009091550601968F739927909355068093CD
:101DB00054062093CE00FF91EF919F918F913F9118
:101DC0002F910F900BBE0F900FBE0F901F90189584
:101DD0001F920F920FB60F9211240BB60F922F93F2
:101DE0003F938F939F93EF93FF932091CA05309178
:101DF000CB058091CC059091CD052817390731F49A
:101E00008091D1008F7D8093D10014C0E091CC05EA
:101E1000F091CD05E657FA4F20818091CC05909145
:101E2000CD0501968F7399279093CD058093CC05AE
:101E30002093D600FF91EF919F918F913F912F9129
:101E40000F900BBE0F900FBE0F901F9018951F9212
:101E50000F920FB60F9211240BB60F922F933F9350
:101E60008F939F93EF93FF93209142053091430509
:101E700080914405909145052817390731F48091E8
:101E800031018F7D8093310114C0E0914405F091C0
:101E90004505EE5FFA4F20818091440590914505FC
:101EA00001968F739927909345058093440520935D
:101EB0003601FF91EF919F918F913F912F910F905C
:101EC0000BBE0F900FBE0F901F901895CF92DF9210
:101ED000EF92FF92CF93DF93EC016A017B014115F2
:101EE00081EE580761057105F9F0EC89FD8981E003
:101EF00090E00E8C02C0880F991F0A94E2F780834D
:101F000060E079E08DE390E0A70196010E945C1209
:101F10002150310941095109569547953795279523
:101F2000211580E1380798F0EC89FD89108260E87E
:101F300074E88EE190E0A70196010E945C122150A6
:101F40003109410951095695479537952795E889F3
:101F5000F9893083EA89FB892083EE89FF894081F2
:101F600081E090E09C010A8C02C0220F331F0A948A
:101F7000E2F7422B4083EE89FF8940819C010B8C64
:101F800002C0220F331F0A94E2F7422B4083EE89EE
:101F9000FF8940819C010C8C02C0220F331F0A94E0
:101FA000E2F7422B4083EE89FF8920810D8C02C02D
:101FB000880F991F0A94E2F7809582238083DF912E
:101FC000CF91FF90EF90DF90CF900895CF93109234
:101FD000E6041092E50488EE93E0A0E0B0E0809380
:101FE000E7049093E804A093E904B093EA0420EC9A
:101FF00033E03093E4042093E3044EED56E0509335
:10200000F0044093EF044AE956E05093F204409301
:10201000F10445EC50E05093F4044093F30444EC95
:1020200050E05093F6044093F50440EC50E0509398
:10203000F8044093F70441EC50E05093FA044093C5
:10204000F90446EC50E05093FC044093FB04C4E0D8
:10205000C093FD04F3E0F093FE04E7E0E093FF0497
:1020600075E07093000561E0609301051092C7046C
:102070001092C6048093C8049093C904A093CA0424
:10208000B093CB043093C5042093C40446E556E0D6
:102090005093D1044093D00442E156E05093D304CE
:1020A0004093D2044DEC50E05093D5044093D404B7
:1020B0004CEC50E05093D7044093D60448EC50E0E9
:1020C0005093D9044093D80449EC50E05093DB047A
:1020D0004093DA044EEC50E05093DD044093DC046E
:1020E000C093DE04F093DF04E093E0047093E10416
:1020F0006093E2041092A8041092A7048093A904AC
:102100009093AA04A093AB04B093AC043093A604BC
:102110002093A5044EEC55E05093B2044093B104D3
:102120004AE855E05093B4044093B30445ED50E0C1
:102130005093B6044093B50444ED50E05093B80476
:102140004093B70440ED50E05093BA044093B90473
:1021500041ED50E05093BC044093BB0446ED50E089
:102160005093BE044093BD04C093BF04F093C004D9
:10217000E093C1047093C2046093C3041092890475
:102180001092880480938A0490938B04A0938C040B
:10219000B0938D04309387042093860486E495E001
:1021A000909393048093920482E095E09093950439
:1021B0008093940485E391E0909397048093960430
:1021C00084E391E0909399048093980480E391E0F4
:1021D00090939B0480939A0481E391E090939D04F3
:1021E00080939C0486E391E090939F0480939E04E7
:1021F000C093A004F093A104E093A2047093A304FD
:102200006093A404CF910895CF92DF92EF92FF9252
:102210000F931F93CF93DF936C01EB017A01E60ECE
:10222000F71E00E010E00BC06991D601ED91FC9122
:102230000190F081E02DC6011995080F191FCE15E8
:10224000DF0591F7C801DF91CF911F910F91FF90AA
:10225000EF90DF90CF900895DB010D900020E9F71B
:10226000AD0141505109461B570BDC01ED91FC912A
:102270000280F381E02D1994AF92BF92CF92DF924A
:10228000EF92FF920F931F93CF93DF937C016B012B
:1022900000E010E0C0E0D0E011C0D701ED91FC916A
:1022A000A080B180B801C6010E94D10C682FC7017F
:1022B000F5011995C80FD91F0F5F1F4FD60114964E
:1022C0008D919C9115970817190738F3CE01DF916E
:1022D000CF911F910F91FF90EF90DF90CF90BF9023
:1022E000AF900895DC01ED91FC910190F081E02D1B
:1022F00019940F931F93CF93DF93EC016DE00E942D
:1023000072118C016AE0CE010E9472119C01200FB3
:10231000311FC901DF91CF911F910F9108950F9344
:102320001F93CF93DF93EC010E943C118C01CE01EF
:102330000E9479119C01200F311FC901DF91CF91BB
:102340001F910F9108950F931F93CF93DF93EC018B
:102350000E942C118C01CE010E9479119801280F46
:10236000391FC901DF91CF911F910F9108954F92AD
:102370005F926F927F929F92AF92BF92CF92DF92C5
:10238000EF92FF920F931F93CF93DF93CDB7DEB7FA
:10239000A1970FB6F894DEBF0FBECDBF5C016A01F6
:1023A0007B01922E19A281E0821710F08AE0982E0C
:1023B0008E010F5D1F4F492C512C612C712CC701D0
:1023C000B601A30192010E945C128C2D929E80198D
:1023D0001124015011098A3014F4805D01C0895C18
:1023E000F801808369017A01C114D104E104F10488
:1023F00031F7B801C5010E942C11A1960FB6F894CF
:10240000DEBF0FBECDBFDF91CF911F910F91FF9027
:10241000EF90DF90CF90BF90AF909F907F906F90A4
:102420005F904F9008952115310541F4DC01ED9145
:10243000FC910190F081E02D642F19940C94B71158
:102440000F931F93CF93DF93EC010E9413128C0123
:10245000CE010E9479119C01200F311FC901DF912B
:10246000CF911F910F910895A29FB001B39FC0011A
:10247000A39F01D0B29F700D811D1124911D08955D
:10248000DB018F939F930E949A12BF91AF91A29FFD
:10249000800D911DA39F900DB29F900D1124089562
:1024A000991B79E004C0991F961708F0961B881FA6
:1024B0007A95C9F780950895A1E21A2EAA1BBB1B35
:1024C000FD010DC0AA1FBB1FEE1FFF1FA217B30700
:1024D000E407F50720F0A21BB30BE40BF50B661F16
:1024E000771F881F991F1A9469F7609570958095DA
:1024F00090959B01AC01BD01CF010895052E97FB7E
:1025000016F4009407D057FD0DD00E945C1207FC12
:1025100009D07EF490958095709561957F4F8F4F8F
:102520009F4F089550954095309521953F4F4F4FBF
:102530005F4F08950E943412A59F900DB49F900D97
:10254000A49F800D911D112408950790F691E02D10
:1025500019940F931F93CF93DF938230910510F45A
:1025600082E090E0E0912407F091250720E030E040
:10257000C0E0D0E023C04081518148175907A8F03E
:102580004817590761F482819381209719F09B8342
:102590008A832EC0909325078093240729C0211594
:1025A000310529F04217530710F0A90102C0BE01FE
:1025B000DF0102811381EF019A01F8013097D9F60A
:1025C0002115310509F1281B390B2430310590F410
:1025D00012968D919C9113976115710521F0FB0165
:1025E0009383828304C09093250780932407FD0181
:1025F000329644C0FD01E20FF31F81939193225064
:1026000031092D933C933AC0209122073091230742
:10261000232B41F4209102023091030230932307CF
:1026200020932207209100023091010221153105EB
:1026300041F42DB73EB74091040250910502241B8E
:10264000350BE0912207F0912307E217F307A0F47E
:102650002E1B3F0B2817390778F0AC014E5F5F4FF8
:102660002417350748F04E0F5F1F50932307409300
:1026700022078193919302C0E0E0F0E0CF01DF9167
:10268000CF911F910F910895EF92FF920F931F9397
:10269000CF93DF93009709F48FC0DC011297139654
:1026A0001C921E921297E0902407F0902507E114E7
:1026B000F10489F42D913C911197280F391F8091D5
:1026C0002207909123078217930789F5B093230778
:1026D000A093220771C0E70120E030E001C0EA01C9
:1026E000CA17DB0738F44A815B819E014115510509
:1026F000B1F722C0BC0162507109FB01D383C283D0
:1027000000811181AC01400F511F4C175D0761F42E
:1027100048815981400F511F4E5F5F4F5183408365
:102720004A815B81538342832115310529F4B0939B
:102730002507A093240740C0F901B383A283E901D0
:1027400069917991C60FD71FAC17BD0779F4DC01E9
:102750005E914E91460F571F4E5F5F4F51834083EE
:1027600012968D919C91139793838283A0E0B0E0A1
:1027700002C0D7017C01F701828193810097C9F7DC
:10278000C701029620813181820F931F2091220779
:10279000309123072817390779F4109729F41092FC
:1027A00025071092240704C013961C921E921297BC
:1027B000F0922307E0922207DF91CF911F910F91B2
:1027C000FF90EF9008958F929F92AF92BF92CF9219
:1027D000DF92EF92FF920F931F93CF93DF93EC0161
:1027E000009779F4CB01DF91CF911F910F91FF906A
:1027F000EF90DF90CF90BF90AF909F908F900C9410
:10280000A912DC01A60FB71FFC013297AE17BF0754
:1028100018F4C0E0D0E0ADC00081118106171707A1
:10282000B0F00530110508F4A4C0C801049786175C
:10283000970708F49EC002501109061B170B0D9351
:102840001D9371836083CD010E94441392C07B016C
:10285000E01AF10A5C01A00EB11EE0912407F0918C
:102860002507812C912C80E090E04CC0EA15FB05F7
:10287000F1F5408151816A0122E0C20ED11CCE14D3
:10288000DF04A8F19A012E193F097901690132E0AC
:10289000C30ED11C2EEFA22EBB24BA94AC0EBD1ECB
:1028A00025E0C216D10478F04281538113965C93DF
:1028B0004E9312971196FC92EE92F501718360830C
:1028C0003A2F2B2F09C00E5F1F4F040F151FD50184
:1028D0000D931C9332812381009721F0FC013283F8
:1028E000238347C0309324072093250742C080816B
:1028F00091818816990608F44C0152814381CF01D9
:10290000E52FF42F309709F0B1CF809122079091F5
:1029100023078A159B05F1F486169706D8F4809153
:10292000000290910102009741F48DB79EB720916B
:10293000040230910502821B930BA817B90708F017
:1029400068CFB0932307A0932207FE0132977183CB
:1029500060830FC0CB010E94A9127C01009709F48B
:1029600058CFA801BE010E94C714CE010E94441393
:10297000E701CE01DF91CF911F910F91FF90EF9072
:10298000DF90CF90BF90AF909F908F900895FB0104
:10299000DC0102C001900D9241505040D8F70895DB
:1029A000FB01DC018D91019080190110D9F3990B85
:1029B0000895FB01DC0101900D920020E1F70895DC
:1029C00012E0CCE1D2E000E006C022970109FE014E
:1029D0000BBF0E94A512CE31D10780E00807A9F7EE
:0429E000F894FFCF99
:1029E4000000260720000100000028005A006009AA
:1029F400840361726475696E6F2072656164790025
:102A0400726563656976653A2000202D2000425680
:102A14004600626567696E2076656869636C652047
:102A2400666F72776172640045564600656E642075
:102A340076656869636C6520666F7277617264009D
:102A440042564200626567696E2076656869636C08
:102A540065206261636B776172640045564200656C
:102A64006E642076656869636C65206261636B7768
:102A74006172640042564C00626567696E20766537
:102A84006869636C65206C6566740045564C006526
:102A94006E642076656869636C65206C6566740095
:102AA40042565200626567696E2076656869636C98
:102AB400652072696768740045565200656E64202B
:102AC40076656869636C652072696768740042544E
:102AD4004C00626567696E20747572726574206C4F
:102AE4006566740045544C00656E6420747572729A
:102AF4006574206C656674004254520062656769AF
:102B04006E2074757272657420726967687400450A
:102B1400545200656E642074757272657420726913
:102B24006768740042545500626567696E20747565
:102B3400727265742075700045545500656E64208A
:102B44007475727265742075700042544400626535
:102B540067696E2074757272657420646F776E0095
:102B640045544400656E6420747572726574206403
:102B74006F776E00534600737461727420666972D5
:102B8400696E6700454600656E6420666972696E09
:102B9400670070696E6700706F6E67000000000068
:0C2BA400470D0411E20C110DF50C350D6D
:00000001FF
